:090AA1005453452D323031380068
:0709DA00120A017F147E00E8
:1009E100E4FDFCC3ED9FEC9E5015E4FBFA0BBB004C
:0F09F100010ABA04F8BBFBF50DBD00010C80E450
:010A000022D3
:100A0100A907E954F0F5B0C2B0C2B1D2B21209DD02
:100A1100C2B21209E1E9C454F0F5B0C2B0C2B1D218
:070A2100B21209E1C2B2228A
:100A2800A907E954F0F5B0D2B0C2B1D2B21209DDCB
:100A3800C2B21209E1E9C454F0F5B0D2B0C2B1D2E1
:070A4800B21209E1C2B22263
:100A4F008B128A138914AB12AA13A9141209AFFFC0
:100A5F006013120A2874012514F514E43513F513E5
:060A6F001209DD80E12206
:100A75007F281209DA7F0E1209DA7F061209DA7F5A
:100A8500011209DA7F80120A017F147E000209E152
:1008C000D294D295D296D297C290C291C292C2933C
:1008D0002097079000377F37801C209607900034C0
:1008E0007F3480122095079000317F31800820945A
:0D08F000089000257F25120A28AF82AE83F4
:0108FD0022D8
:1008FE00D294D295D296D297C290C291C292C293FE
:10090E002097079000387F38801C2096079000357E
:10091E007F3580122095079000327F328008209418
:0D092E00089000307F30120A28AF82AE839F
:01093B002299
:10087600D294D295D296D297C290C291C292C29386
:1008860020970A7515007516397F39802520960A36
:100896007515007516367F36801820950A75150071
:1008A6007516337F33800B20940B75150075163D36
:0A08B6007F3D120A28AE15AF16228E
:10097A00D294D295D296D297C290C291C292C29381
:10098A002097057F2F120A282096057F2A120A2807
:10099A002095057F2D120A282094057F2B120A28FC
:0509AA00AE15AF16229E
:10093C007F1E7E001209E1D290D291D292D293C244
:10094C0094C295C296C2972093051208C0801620B7
:10095C0092051208FE800E20910512087680062062
:0D096C0090CE12097A8E128F13AE12AF13C7
:01097900225B
:10080000120A757BFF7A0A79A1120A4F7FC012097A
:10081000DAE4F510F511F50EF50F12093CE50F2598
:10082000E02408F8A60608A607050FE50F700205E4
:100830000ED39402E50E6480948040DEAE0AAF0BC6
:100840007C007D0A1209C8AA06AB07AE08AF097D75
:10085000641209C8EF2BFFEE3AFEE50D2FCFE50C31
:100860003ECF2430F511E43FF5108511A07F647E62
:06087000001209E1809670
:03000000020A955C
:0C0A9500787FE4F6D8FD75811602080099
:1009AF00BB010689828A83E0225002E722BBFE0246
:0909BF00E32289828A83E4932279
:1009C800EF8DF0A4A8F0CF8CF0A428CE8DF0A42E43
:0209D800FE22FD
:00000001FF
