:1009F40053686F7274206369726375697400446527
:100A04007369676E6174686F6E00383A20696E634B
:100A1400202C20323A2064656300496E6372656D50
:100A2400656E746564203130250044656372656DBC
:0A0A3400656E746564203130250002
:100B0E0010093738392F343536783132332D2030BD
:020B1E003D2B6D
:100800007590F07590F08590085308F0E50864F055
:1008100070F17F147E00120ACEE59054F0F5086462
:10082000F060EF7F017E00120ACEE59054F0F508EB
:1008300064F060DE7590FEE59054F0F50864F060B9
:1008400005E4F51980347590FDE59054F0F50864E1
:10085000F0600575190180227590FBE59054F0F564
:100860000864F0600575190280107590F7E59054E2
:10087000F0F50864F060BD751903E508FD7C0064BF
:10088000E0700AE51925E025E024098028ED64D010
:100890004C700AE51925E025E0240A8018E5086473
:1008A000B0700AE51925E025E0240B8008E519253C
:0908B000E025E0240CF8E6FF222B
:1008B900751A00751B80851B80120AEE7BFF7A0969
:1008C90079F4E4FD7F01120A3E7BFF7A0A7902E49A
:1008D900FD7F02120A3E7F647E00120ACE7F01125A
:1008E9000B217BFF7A0A790EE4FD7F01120A3E7F14
:1008F900C0120B21120800BF381B7F01120B217B8C
:10090900FF7A0A791EE4FD7F02120A3E740A251B4A
:10091900F51BE48020120800BF32207F01120B2151
:100929007BFF7A0A792EE4FD7F02120A3E74F625CE
:100939001BF51B74FF351AF51A800D7BFF7A0979AF
:10094900F4E4FD7F02120A3ED3E51B94FFE51A6425
:0F0959008094804005E4F51AF51B851B80809083
:080AC600C2B4D2B57F017E002D
:100ACE00E4FDFCC3ED9FEC9E5015E4FBFA0BBB005E
:0F0ADE00010AEB64704A70F50DBD00010C80E455
:010AED0022E6
:0E0B21008FA0C2B3120AC6C2B57F03020ACE6D
:0E0B2F008FA0D2B3120AC6C2B57F03020ACE4F
:060A9B008B218A22892351
:100AA100E4F524F525AB21AA22A9238525828524F5
:100AB10083120A6EFF600D120B2F0525E52570E5E7
:040AC100052480E1A7
:010AC500220E
:100A3E008F1C8D1D8B1E8A1F8920EF64017008E5A7
:100A4E001D540F4480800CE51C6402700AE51D5491
:100A5E000F44C0FF120B21AB1EAA1FA920020A9B36
:100AEE007F327E00120ACE7F38120B217F0C120B42
:100AFE00217F01120B217F06120B217F80020B2119
:030000000209688A
:0C096800787FE4F6D8FD7581250209AF08
:100A6E00BB010CE58229F582E5833AF583E022503D
:100A7E0006E92582F8E622BBFE06E92582F8E22287
:0D0A8E00E58229F582E5833AF583E49322A1
:100974000208B9E493A3F8E493A34003F68001F2D8
:1009840008DFF48029E493A3F85407240CC8C33384
:10099400C4540F4420C8834004F456800146F6DF53
:1009A400E4800B0102040810204080900B0EE47ECA
:1009B400019360BCA3FF543F30E509541FFEE49348
:1009C400A360010ECF54C025E060A840B8E493A30F
:1009D400FAE493A3F8E493A3C8C582C8CAC583CA3A
:1009E400F0A3C8C582C8CAC583CADFE9DEE780BEF2
:010B200000D4
:00000001FF
